{"abi":[{"type":"constructor","inputs":[{"name":"_verifier","type":"address","internalType":"address"},{"name":"guardian","type":"address","internalType":"address"}],"stateMutability":"nonpayable"},{"type":"function","name":"estop","inputs":[],"outputs":[],"stateMutability":"nonpayable"},{"type":"function","name":"owner","inputs":[],"outputs":[{"name":"","type":"address","internalType":"address"}],"stateMutability":"view"},{"type":"function","name":"paused","inputs":[],"outputs":[{"name":"","type":"bool","internalType":"bool"}],"stateMutability":"view"},{"type":"function","name":"verify","inputs":[{"name":"seal","type":"bytes","internalType":"bytes"},{"name":"imageId","type":"bytes32","internalType":"bytes32"},{"name":"journalDigest","type":"bytes32","internalType":"bytes32"}],"outputs":[],"stateMutability":"view"}],"bytecode":{"object":"0x60c060405234801561000f575f5ffd5b50604051610725380380610725833981810160405281019061003191906100fe565b8173ffffffffffffffffffffffffffffffffffffffff1660a08173ffffffffffffffffffffffffffffffffffffffff16815250508073ffffffffffffffffffffffffffffffffffffffff1660808173ffffffffffffffffffffffffffffffffffffffff1681525050505061013c565b5f5ffd5b5f73ffffffffffffffffffffffffffffffffffffffff82169050919050565b5f6100cd826100a4565b9050919050565b6100dd816100c3565b81146100e7575f5ffd5b50565b5f815190506100f8816100d4565b92915050565b5f5f60408385031215610114576101136100a0565b5b5f610121858286016100ea565b9250506020610132858286016100ea565b9150509250929050565b60805160a0516105c26101635f395f61013501525f818160c301526101c601526105c25ff3fe608060405234801561000f575f5ffd5b506004361061004a575f3560e01c80635c975abb1461004e5780638da5cb5b1461006c578063ab750e751461008a578063e5caa16a146100a6575b5f5ffd5b6100566100b0565b6040516100639190610287565b60405180910390f35b6100746100c1565b60405161008191906102df565b60405180910390f35b6100a4600480360381019061009f9190610394565b6100e5565b005b6100ae6101c4565b005b5f5f9054906101000a900460ff1681565b7f000000000000000000000000000000000000000000000000000000000000000081565b5f5f9054906101000a900460ff1615610133576040517f08c379a000000000000000000000000000000000000000000000000000000000815260040161012a9061045f565b60405180910390fd5b7f000000000000000000000000000000000000000000000000000000000000000073ffffffffffffffffffffffffffffffffffffffff1663ab750e75858585856040518563ffffffff1660e01b815260040161019294939291906104e6565b5f6040518083038186803b1580156101a8575f5ffd5b505afa1580156101ba573d5f5f3e3d5ffd5b5050505050505050565b7f000000000000000000000000000000000000000000000000000000000000000073ffffffffffffffffffffffffffffffffffffffff163373ffffffffffffffffffffffffffffffffffffffff1614610252576040517f08c379a00000000000000000000000000000000000000000000000000000000081526004016102499061056e565b60405180910390fd5b60015f5f6101000a81548160ff021916908315150217905550565b5f8115159050919050565b6102818161026d565b82525050565b5f60208201905061029a5f830184610278565b92915050565b5f73ffffffffffffffffffffffffffffffffffffffff82169050919050565b5f6102c9826102a0565b9050919050565b6102d9816102bf565b82525050565b5f6020820190506102f25f8301846102d0565b92915050565b5f5ffd5b5f5ffd5b5f5ffd5b5f5ffd5b5f5ffd5b5f5f83601f84011261032157610320610300565b5b8235905067ffffffffffffffff81111561033e5761033d610304565b5b60208301915083600182028301111561035a57610359610308565b5b9250929050565b5f819050919050565b61037381610361565b811461037d575f5ffd5b50565b5f8135905061038e8161036a565b92915050565b5f5f5f5f606085870312156103ac576103ab6102f8565b5b5f85013567ffffffffffffffff8111156103c9576103c86102fc565b5b6103d58782880161030c565b945094505060206103e887828801610380565b92505060406103f987828801610380565b91505092959194509250565b5f82825260208201905092915050565b7f73746f70706564000000000000000000000000000000000000000000000000005f82015250565b5f610449600783610405565b915061045482610415565b602082019050919050565b5f6020820190508181035f8301526104768161043d565b9050919050565b5f82825260208201905092915050565b828183375f83830152505050565b5f601f19601f8301169050919050565b5f6104b6838561047d565b93506104c383858461048d565b6104cc8361049b565b840190509392505050565b6104e081610361565b82525050565b5f6060820190508181035f8301526104ff8186886104ab565b905061050e60208301856104d7565b61051b60408301846104d7565b95945050505050565b7f6e6f74206f776e657200000000000000000000000000000000000000000000005f82015250565b5f610558600983610405565b915061056382610524565b602082019050919050565b5f6020820190508181035f8301526105858161054c565b905091905056fea26469706673582212206847f72275db9e79efeafaaed2bc3ebde3c017b29750d25e98efb13f6720c62d64736f6c63430008210033","linkReferences":{}},"methodIdentifiers":{"estop()":"e5caa16a","owner()":"8da5cb5b","paused()":"5c975abb","verify(bytes,bytes32,bytes32)":"ab750e75"},"id":0}