{"abi":[{"type":"constructor","inputs":[{"name":"_admin","type":"address","internalType":"address"}],"stateMutability":"nonpayable"},{"type":"function","name":"addVerifier","inputs":[{"name":"selector","type":"bytes4","internalType":"bytes4"},{"name":"verifier","type":"address","internalType":"address"}],"outputs":[],"stateMutability":"nonpayable"},{"type":"function","name":"admin","inputs":[],"outputs":[{"name":"","type":"address","internalType":"address"}],"stateMutability":"view"},{"type":"function","name":"getVerifier","inputs":[{"name":"selector","type":"bytes4","internalType":"bytes4"}],"outputs":[{"name":"","type":"address","internalType":"address"}],"stateMutability":"view"},{"type":"function","name":"verify","inputs":[{"name":"seal","type":"bytes","internalType":"bytes"},{"name":"imageId","type":"bytes32","internalType":"bytes32"},{"name":"journalDigest","type":"bytes32","internalType":"bytes32"}],"outputs":[],"stateMutability":"view"}],"bytecode":{"object":"0x60a060405234801561000f575f5ffd5b50604051610a7c380380610a7c833981810160405281019061003191906100c9565b8073ffffffffffffffffffffffffffffffffffffffff1660808173ffffffffffffffffffffffffffffffffffffffff1681525050506100f4565b5f5ffd5b5f73ffffffffffffffffffffffffffffffffffffffff82169050919050565b5f6100988261006f565b9050919050565b6100a88161008e565b81146100b2575f5ffd5b50565b5f815190506100c38161009f565b92915050565b5f602082840312156100de576100dd61006b565b5b5f6100eb848285016100b5565b91505092915050565b6080516109696101135f395f8181610301015261041f01526109695ff3fe608060405234801561000f575f5ffd5b506004361061004a575f3560e01c80633cadf4491461004e578063ab750e751461007e578063d0a6af301461009a578063f851a440146100b6575b5f5ffd5b6100686004803603810190610063919061049e565b6100d4565b6040516100759190610508565b60405180910390f35b610098600480360381019061009391906105b5565b61014a565b005b6100b460048036038101906100af9190610650565b6102ff565b005b6100be61041d565b6040516100cb9190610508565b60405180910390f35b5f5f5f837bffffffffffffffffffffffffffffffffffffffffffffffffffffffff19167bffffffffffffffffffffffffffffffffffffffffffffffffffffffff191681526020019081526020015f205f9054906101000a900473ffffffffffffffffffffffffffffffffffffffff169050919050565b6004848490501015610191576040517f08c379a0000000000000000000000000000000000000000000000000000000008152600401610188906106e8565b60405180910390fd5b5f5f5f86865f906004926101a79392919061070e565b906101b2919061075e565b7bffffffffffffffffffffffffffffffffffffffffffffffffffffffff19167bffffffffffffffffffffffffffffffffffffffffffffffffffffffff191681526020019081526020015f205f9054906101000a900473ffffffffffffffffffffffffffffffffffffffff1690505f73ffffffffffffffffffffffffffffffffffffffff168173ffffffffffffffffffffffffffffffffffffffff160361028d576040517f08c379a000000000000000000000000000000000000000000000000000000000815260040161028490610806565b60405180910390fd5b8073ffffffffffffffffffffffffffffffffffffffff1663ab750e75868686866040518563ffffffff1660e01b81526004016102cc949392919061088d565b5f6040518083038186803b1580156102e2575f5ffd5b505afa1580156102f4573d5f5f3e3d5ffd5b505050505050505050565b7f000000000000000000000000000000000000000000000000000000000000000073ffffffffffffffffffffffffffffffffffffffff163373ffffffffffffffffffffffffffffffffffffffff161461038d576040517f08c379a000000000000000000000000000000000000000000000000000000000815260040161038490610915565b60405180910390fd5b805f5f847bffffffffffffffffffffffffffffffffffffffffffffffffffffffff19167bffffffffffffffffffffffffffffffffffffffffffffffffffffffff191681526020019081526020015f205f6101000a81548173ffffffffffffffffffffffffffffffffffffffff021916908373ffffffffffffffffffffffffffffffffffffffff1602179055505050565b7f000000000000000000000000000000000000000000000000000000000000000081565b5f5ffd5b5f5ffd5b5f7fffffffff0000000000000000000000000000000000000000000000000000000082169050919050565b61047d81610449565b8114610487575f5ffd5b50565b5f8135905061049881610474565b92915050565b5f602082840312156104b3576104b2610441565b5b5f6104c08482850161048a565b91505092915050565b5f73ffffffffffffffffffffffffffffffffffffffff82169050919050565b5f6104f2826104c9565b9050919050565b610502816104e8565b82525050565b5f60208201905061051b5f8301846104f9565b92915050565b5f5ffd5b5f5ffd5b5f5ffd5b5f5f83601f84011261054257610541610521565b5b8235905067ffffffffffffffff81111561055f5761055e610525565b5b60208301915083600182028301111561057b5761057a610529565b5b9250929050565b5f819050919050565b61059481610582565b811461059e575f5ffd5b50565b5f813590506105af8161058b565b92915050565b5f5f5f5f606085870312156105cd576105cc610441565b5b5f85013567ffffffffffffffff8111156105ea576105e9610445565b5b6105f68782880161052d565b94509450506020610609878288016105a1565b925050604061061a878288016105a1565b91505092959194509250565b61062f816104e8565b8114610639575f5ffd5b50565b5f8135905061064a81610626565b92915050565b5f5f6040838503121561066657610665610441565b5b5f6106738582860161048a565b92505060206106848582860161063c565b9150509250929050565b5f82825260208201905092915050565b7f73686f7274207365616c000000000000000000000000000000000000000000005f82015250565b5f6106d2600a8361068e565b91506106dd8261069e565b602082019050919050565b5f6020820190508181035f8301526106ff816106c6565b9050919050565b5f5ffd5b5f5ffd5b5f5f8585111561072157610720610706565b5b838611156107325761073161070a565b5b6001850283019150848603905094509492505050565b5f82905092915050565b5f82821b905092915050565b5f6107698383610748565b826107748135610449565b925060048210156107b4576107af7fffffffff0000000000000000000000000000000000000000000000000000000083600403600802610752565b831692505b505092915050565b7f6d697373696e67207665726966696572000000000000000000000000000000005f82015250565b5f6107f060108361068e565b91506107fb826107bc565b602082019050919050565b5f6020820190508181035f83015261081d816107e4565b9050919050565b5f82825260208201905092915050565b828183375f83830152505050565b5f601f19601f8301169050919050565b5f61085d8385610824565b935061086a838584610834565b61087383610842565b840190509392505050565b61088781610582565b82525050565b5f6060820190508181035f8301526108a6818688610852565b90506108b5602083018561087e565b6108c2604083018461087e565b95945050505050565b7f6e6f742061646d696e00000000000000000000000000000000000000000000005f82015250565b5f6108ff60098361068e565b915061090a826108cb565b602082019050919050565b5f6020820190508181035f83015261092c816108f3565b905091905056fea2646970667358221220831d23a543c0a9318913e2981b41e267c85b133a526fb1313946f09f789b61f064736f6c63430008210033","linkReferences":{}},"methodIdentifiers":{"addVerifier(bytes4,address)":"d0a6af30","admin()":"f851a440","getVerifier(bytes4)":"3cadf449","verify(bytes,bytes32,bytes32)":"ab750e75"},"id":0}