{"abi":[{"type":"constructor","inputs":[{"name":"selector","type":"bytes4","internalType":"bytes4"}],"stateMutability":"nonpayable"},{"type":"function","name":"SELECTOR","inputs":[],"outputs":[{"name":"","type":"bytes4","internalType":"bytes4"}],"stateMutability":"view"},{"type":"function","name":"mockProve","inputs":[{"name":"imageId","type":"bytes32","internalType":"bytes32"},{"name":"journalDigest","type":"bytes32","internalType":"bytes32"}],"outputs":[{"name":"","type":"tuple","internalType":"struct Receipt","components":[{"name":"seal","type":"bytes","internalType":"bytes"},{"name":"claimDigest","type":"bytes32","internalType":"bytes32"}]}],"stateMutability":"view"},{"type":"function","name":"verify","inputs":[{"name":"seal","type":"bytes","internalType":"bytes"},{"name":"imageId","type":"bytes32","internalType":"bytes32"},{"name":"journalDigest","type":"bytes32","internalType":"bytes32"}],"outputs":[],"stateMutability":"view"}],"bytecode":{"object":"0x60a060405234801561000f575f5ffd5b50604051610af3380380610af3833981810160405281019061003191906100d6565b807bffffffffffffffffffffffffffffffffffffffffffffffffffffffff19166080817bffffffffffffffffffffffffffffffffffffffffffffffffffffffff19168152505050610101565b5f5ffd5b5f7fffffffff0000000000000000000000000000000000000000000000000000000082169050919050565b6100b581610081565b81146100bf575f5ffd5b50565b5f815190506100d0816100ac565b92915050565b5f602082840312156100eb576100ea61007d565b5b5f6100f8848285016100c2565b91505092915050565b6080516109cd6101265f395f818160af0152818161014e015261026501526109cd5ff3fe608060405234801561000f575f5ffd5b506004361061003f575f3560e01c8063053c238d1461004357806366cf0e4b14610061578063ab750e7514610091575b5f5ffd5b61004b6100ad565b6040516100589190610437565b60405180910390f35b61007b6004803603810190610076919061048b565b6100d1565b6040516100889190610582565b60405180910390f35b6100ab60048036038101906100a69190610603565b61021d565b005b7f000000000000000000000000000000000000000000000000000000000000000081565b6100d96103e4565b5f600284846040516020016100ef929190610694565b60405160208183030381529060405260405161010b91906106f9565b602060405180830381855afa158015610126573d5f5f3e3d5ffd5b5050506040513d601f19601f820116820180604052508101906101499190610723565b90505f7f00000000000000000000000000000000000000000000000000000000000000008260405160200161017f92919061076e565b60405160208183030381529060405290506040518060400160405280828152602001600287876040516020016101b6929190610694565b6040516020818303038152906040526040516101d291906106f9565b602060405180830381855afa1580156101ed573d5f5f3e3d5ffd5b5050506040513d601f19601f820116820180604052508101906102109190610723565b8152509250505092915050565b60248484905014610263576040517f08c379a000000000000000000000000000000000000000000000000000000000815260040161025a906107f3565b60405180910390fd5b7f00000000000000000000000000000000000000000000000000000000000000007bffffffffffffffffffffffffffffffffffffffffffffffffffffffff191684845f906004926102b693929190610819565b906102c19190610869565b7bffffffffffffffffffffffffffffffffffffffffffffffffffffffff191614610320576040517f08c379a000000000000000000000000000000000000000000000000000000000815260040161031790610911565b60405180910390fd5b5f600485013590505f6002848460405160200161033e929190610694565b60405160208183030381529060405260405161035a91906106f9565b602060405180830381855afa158015610375573d5f5f3e3d5ffd5b5050506040513d601f19601f820116820180604052508101906103989190610723565b90508082146103dc576040517f08c379a00000000000000000000000000000000000000000000000000000000081526004016103d390610979565b60405180910390fd5b505050505050565b6040518060400160405280606081526020015f81525090565b5f7fffffffff0000000000000000000000000000000000000000000000000000000082169050919050565b610431816103fd565b82525050565b5f60208201905061044a5f830184610428565b92915050565b5f5ffd5b5f5ffd5b5f819050919050565b61046a81610458565b8114610474575f5ffd5b50565b5f8135905061048581610461565b92915050565b5f5f604083850312156104a1576104a0610450565b5b5f6104ae85828601610477565b92505060206104bf85828601610477565b9150509250929050565b5f81519050919050565b5f82825260208201905092915050565b8281835e5f83830152505050565b5f601f19601f8301169050919050565b5f61050b826104c9565b61051581856104d3565b93506105258185602086016104e3565b61052e816104f1565b840191505092915050565b61054281610458565b82525050565b5f604083015f8301518482035f8601526105628282610501565b91505060208301516105776020860182610539565b508091505092915050565b5f6020820190508181035f83015261059a8184610548565b905092915050565b5f5ffd5b5f5ffd5b5f5ffd5b5f5f83601f8401126105c3576105c26105a2565b5b8235905067ffffffffffffffff8111156105e0576105df6105a6565b5b6020830191508360018202830111156105fc576105fb6105aa565b5b9250929050565b5f5f5f5f6060858703121561061b5761061a610450565b5b5f85013567ffffffffffffffff81111561063857610637610454565b5b610644878288016105ae565b9450945050602061065787828801610477565b925050604061066887828801610477565b91505092959194509250565b5f819050919050565b61068e61068982610458565b610674565b82525050565b5f61069f828561067d565b6020820191506106af828461067d565b6020820191508190509392505050565b5f81905092915050565b5f6106d3826104c9565b6106dd81856106bf565b93506106ed8185602086016104e3565b80840191505092915050565b5f61070482846106c9565b915081905092915050565b5f8151905061071d81610461565b92915050565b5f6020828403121561073857610737610450565b5b5f6107458482850161070f565b91505092915050565b5f819050919050565b610768610763826103fd565b61074e565b82525050565b5f6107798285610757565b600482019150610789828461067d565b6020820191508190509392505050565b5f82825260208201905092915050565b7f626164207365616c206c656e67746800000000000000000000000000000000005f82015250565b5f6107dd600f83610799565b91506107e8826107a9565b602082019050919050565b5f6020820190508181035f83015261080a816107d1565b9050919050565b5f5ffd5b5f5ffd5b5f5f8585111561082c5761082b610811565b5b8386111561083d5761083c610815565b5b6001850283019150848603905094509492505050565b5f82905092915050565b5f82821b905092915050565b5f6108748383610853565b8261087f81356103fd565b925060048210156108bf576108ba7fffffffff000000000000000000000000000000000000000000000000000000008360040360080261085d565b831692505b505092915050565b7f73656c6563746f720000000000000000000000000000000000000000000000005f82015250565b5f6108fb600883610799565b9150610906826108c7565b602082019050919050565b5f6020820190508181035f830152610928816108ef565b9050919050565b7f7061796c6f6164000000000000000000000000000000000000000000000000005f82015250565b5f610963600783610799565b915061096e8261092f565b602082019050919050565b5f6020820190508181035f83015261099081610957565b905091905056fea2646970667358221220a4fc28f6aa45b334ef1431b31e82d7f9b6c76938d435aeebb41c1ec8c94d41d164736f6c63430008210033","linkReferences":{}},"methodIdentifiers":{"SELECTOR()":"053c238d","mockProve(bytes32,bytes32)":"66cf0e4b","verify(bytes,bytes32,bytes32)":"ab750e75"},"id":0}